:100000000C942A000C9447000C9447000C94470071
:100010000C9447000C9447000C94670D0C94470017
:100020000C9447000C942E0E0C9447000C9447003F
:100030000C9447000C9447000C9447000C94470024
:100040000C9447000C9447000C9447000C94470014
:100050000C94470011241FBECFE5D8E0DEBFCDBF12
:1000600010E0A0E6B0E0E2E9FFE102C005900D92E9
:10007000A637B107D9F710E0A6E7B0E001C01D929E
:10008000AB38B107E1F70E94590E0C94C70F0C94DE
:100090000000EF92FF920F931F937B018C0120E0F1
:1000A00030E040E05FE40E94490388238CF0C801FF
:1000B000B70120E030E040E05FE40E94C1010E940F
:1000C000A9039B01AC01205030404040504806C07D
:1000D000C801B7010E94A9039B01AC01B901CA0183
:1000E0001F910F91FF90EF900895A0E0B0E0EBE733
:1000F000F0E00C94900FDC012B01FA019C919230FE
:1001000008F439C1EB018881823008F433C194309E
:1001100069F4843009F02FC111969C91119789815F
:10012000981709F428C1AEE6B0E025C1843009F47F
:1001300021C18230A9F4923009F01DC19A01AD01AC
:1001400088E0EA010990AE01E90109929E0181501F
:10015000C1F7E201898111969C918923818308C1AD
:10016000923009F407C112962D903C901397EB0141
:100170008A819B811496AD90BD90CD90DC901797AD
:10018000EC80FD800E811F819101281B390BB90184
:1001900037FF04C066277727621B730B6032710537
:1001A0000CF061C0121613066CF537014801062EDB
:1001B00004C096948794779467940A94D2F721E0C8
:1001C00030E040E050E004C0220F331F441F551FB1
:1001D0006A95D2F721503040404050402E213F21B7
:1001E00040235123211531054105510521F021E01E
:1001F00030E040E050E079018A01E628F72808293C
:1002000019293CC0232BD1F1260E371E350146019A
:10021000062E04C096948794779467940A94D2F734
:1002200021E030E040E050E004C0220F331F441FC3
:10023000551F6A95D2F721503040404050402A2146
:100240003B214C215D21211531054105510521F04E
:1002500021E030E040E050E059016A01A628B728CB
:10026000C828D9280BC0821593052CF01C01AA249C
:10027000BB24650103C0EE24FF24870111969C91E5
:10028000D20111968C91981709F445C0992339F041
:10029000A80197012A193B094C095D0906C0A6016E
:1002A00095012E193F09400B510B57FD08C01182D3
:1002B0003382228224833583468357831DC081E0A5
:1002C00081833382228288279927DC01821B930B4A
:1002D000A40BB50B84839583A683B7830DC0220F2F
:1002E000331F441F551F24833583468357838281E0
:1002F000938101979383828324813581468157813D
:10030000DA01C9010197A109B1098F5F9F4FAF4F72
:10031000BF4328F30BC0918333822282EA0CFB1C7B
:100320000C1D1D1DE482F5820683178383E0808304
:10033000248135814681578157FF1AC0C901AA27F8
:1003400097FDA095BA2F81709070A070B0705695EF
:10035000479537952795822B932BA42BB52B848318
:100360009583A683B7838281938101969383828349
:10037000DF0101C0D201CD01CDB7DEB7E2E10C94BF
:10038000AC0FA0E2B0E0E7ECF1E00C949C0F6983C5
:100390007A838B839C832D833E834F835887E9E048
:1003A000EE2EF12CEC0EFD1ECE010196B7010E943F
:1003B000D2048E010F5E1F4FCE010596B8010E9438
:1003C000D2048A8991E089278A8BC701B801AE01DE
:1003D000475E5F4F0E9475000E94FD03A096E6E015
:1003E0000C94B80FA0E2B0E0E8EFF1E00C949C0FA1
:1003F00069837A838B839C832D833E834F835887C5
:10040000F9E0EF2EF12CEC0EFD1ECE010196B701A6
:100410000E94D2048E010F5E1F4FCE010596B801D7
:100420000E94D204C701B801AE01475E5F4F0E942F
:1004300075000E94FD03A096E6E00C94B80FA0E2C0
:10044000B0E0E5E2F2E00C94900F69837A838B834D
:100450009C832D833E834F835887CE010196BE0136
:10046000675F7F4F0E94D204CE010596BE016F5E8A
:100470007F4F0E94D2049985923088F0898982301A
:10048000C8F0943019F4823051F404C0843029F457
:10049000923081F48EE690E0C6C0923049F420E0BC
:1004A0009A858A89981321E02A87CE010996BBC0D4
:1004B000823049F420E09A858A89981321E02A8BBA
:1004C000CE014196B0C02D843E844F8458886D88FB
:1004D0007E888F88988CEE24FF248701AA24BB2471
:1004E000650140E050E060E070E0E0E0F0E0C10174
:1004F00081709070892BE9F0E60CF71C081D191D1E
:100500009A01AB012A0D3B1D4C1D5D1D80E090E062
:10051000A0E0B0E0E614F7040805190520F481E036
:1005200090E0A0E0B0E0BA01A901480F591F6A1F8E
:100530007B1FAA0CBB1CCC1CDD1C97FE08C081E0F5
:1005400090E0A0E0B0E0A82AB92ACA2ADB2A3196B6
:10055000E032F10549F0660C771C881C991C569412
:10056000479437942794C3CFFA85EA892B893C892D
:100570008B859C85280F391F2E5F3F4F17C0CA01FE
:1005800081709070892B61F016950795F794E79428
:1005900080E090E0A0E0B0E8E82AF92A0A2B1B2BC3
:1005A00076956795579547952F5F3F4F77FDE7CF36
:1005B0000CC0440F551F661F771F17FD4160EE0CDE
:1005C000FF1C001F111F21503040403090E05907A0
:1005D00090E0690790E4790760F32B8F3C8FDB0193
:1005E000CA018F779070A070B07080349105A1051A
:1005F000B10561F447FD0AC0E114F10401051105DC
:1006000029F0405C5F4F6F4F7F4F40781A8EFE1786
:1006100011F081E08A8F4D8F5E8F6F8F78A383E01A
:10062000898FCE0149960E94FD03A096E2E10C94C9
:10063000AC0FA8E1B0E0EFE1F3E00C949C0F69830C
:100640007A838B839C832D833E834F83588789E0F5
:10065000E82EF12CEC0EFD1ECE010196B7010E9492
:10066000D2048E010F5E1F4FCE010596B8010E9485
:10067000D2048985823040F08989823028F0C70110
:10068000B8010E944A0501C08FEF6896E6E00C941D
:10069000B80FA8E1B0E0EFE4F3E00C949C0F69839D
:1006A0007A838B839C832D833E834F83588789E095
:1006B000E82EF12CEC0EFD1ECE010196B7010E9432
:1006C000D2048E010F5E1F4FCE010596B8010E9425
:1006D000D2048985823040F08989823028F0C701B0
:1006E000B8010E944A0501C08FEF6896E6E00C94BD
:1006F000B80FA8E1B0E0EFE7F3E00C949C0F69833A
:100700007A838B839C832D833E834F83588789E034
:10071000E82EF12CEC0EFD1ECE010196B7010E94D1
:10072000D2048E010F5E1F4FCE010596B8010E94C4
:10073000D2048985823040F08989823028F0C7014F
:10074000B8010E944A0501C081E06896E6E00C9479
:10075000B80FACE0B0E0EFEAF3E00C94A00F6983CF
:100760007A838B839C83CE010196BE016B5F7F4FA2
:100770000E94D2048D81823061F1823050F1843048
:1007800021F48E81882351F12EC02F81388537FDC9
:1007900020C06E812F3131051CF06623F9F023C093
:1007A0008EE190E0821B930B29853A854B855C8511
:1007B00004C056954795379527958A95D2F76623B5
:1007C000B1F050954095309521953F4F4F4F5F4F79
:1007D0000EC020E030E040E050E009C02FEF3FEFD6
:1007E0004FEF5FE704C020E030E040E050E8B9019F
:1007F000CA012C96E2E00C94BC0FDF92EF92FF92BC
:100800000F931F93FC01E480F58006811781D1804E
:100810008081823048F480E090E0A0E1B0E0E82AF6
:10082000F92A0A2B1B2BA5C0843009F49FC0823003
:1008300021F4EE24FF24870105C0E114F104010531
:10084000110519F4E0E0F0E096C0628173819FEF3A
:10085000623879070CF05BC022E83FEF261B370BAC
:100860002A3131052CF020E030E040E050E02AC091
:10087000B801A701022E04C0769567955795479554
:100880000A94D2F781E090E0A0E0B0E004C0880FC5
:10089000991FAA1FBB1F2A95D2F70197A109B10979
:1008A0008E219F21A023B1230097A105B10521F03E
:1008B00081E090E0A0E0B0E09A01AB01282B392B59
:1008C0004A2B5B2BDA01C9018F779070A070B07052
:1008D00080349105A105B10539F427FF09C0205CDA
:1008E0003F4F4F4F5F4F04C0215C3F4F4F4F5F4F13
:1008F000E0E0F0E02030A0E03A07A0E04A07A0E402
:100900005A0710F0E1E0F0E079018A0127C0603871
:10091000710564F5FB01E158FF4FD801C7018F77DE
:100920009070A070B07080349105A105B10539F4C4
:10093000E7FE0DC080E490E0A0E0B0E004C08FE3EB
:1009400090E0A0E0B0E0E80EF91E0A1F1B1F17FFA1
:1009500005C016950795F794E794319687E01695AC
:100960000795F794E7948A95D1F705C0EE24FF2404
:100970008701EFEFF0E06E2F679566276795902F60
:100980009F77D794DD24D7948E2F8695492F462BB9
:10099000582F5D29B701CA011F910F91FF90EF9069
:1009A000DF900895FC01DB01408151812281622F9B
:1009B0006F7770E0221F2227221F9381892F880FD3
:1009C000822B282F30E0991F9927991F11969C930D
:1009D000119721153105A9F54115510561057105DD
:1009E00011F482E037C082E89FEF13969C938E93B8
:1009F00012979A01AB0167E0220F331F441F551F66
:100A00006A95D1F783E08C930DC0220F331F441FEA
:100A1000551F12968D919C911397019713969C9355
:100A20008E931297203080E0380780E0480780E4FA
:100A3000580758F314962D933D934D935C93179755
:100A400008952F3F310579F4411551056105710570
:100A500019F484E08C93089564FF03C081E08C93C3
:100A600012C01C9210C02F57304013963C932E9307
:100A7000129783E08C9387E0440F551F661F771F02
:100A80008A95D1F7706414964D935D936D937C9322
:100A9000179708951F93DC01FB019C91923008F495
:100AA00047C08081823008F443C0943051F41196DD
:100AB0001C91843099F58181682F70E0611B710968
:100AC0003FC0843021F0923031F48230B9F181811D
:100AD000882389F12DC011961C9111978230F1F075
:100AE00081811817D9F412962D913C911397828128
:100AF00093818217930794F028173907BCF0149656
:100B00008D919D910D90BC91A02D248135814681C0
:100B10005781281739074A075B0718F4112341F05A
:100B20000AC082179307A407B50740F4112319F0F0
:100B300061E070E005C06FEF7FEF02C060E070E041
:100B4000CB011F910895DF93CF9300D000D0CDB794
:100B5000DEB789836A838981282F30E03C832B8329
:100B60008B819C8181309105D1F02B813C81223099
:100B700031052CF48B819C81009761F01EC02B8184
:100B80003C812230310581F08B819C81833091053D
:100B900081F013C0EAE3F0E08A8180830EC0E7E3CE
:100BA000F0E08A81808309C0E4E3F0E08A818083F9
:100BB00004C0E1E3F0E08A8180830F900F900F90F2
:100BC0000F90CF91DF910895DF93CF9300D000D0A5
:100BD000CDB7DEB789836A838981282F30E03C83D3
:100BE0002B838B819C8181309105D1F02B813C81BD
:100BF000223031052CF48B819C81009761F01EC05E
:100C00002B813C812230310581F08B819C818330A6
:100C1000910581F013C0EBE3F0E08A8180830EC080
:100C2000E8E3F0E08A81808309C0E5E3F0E08A81AF
:100C3000808304C0E2E3F0E08A8180830F900F900C
:100C40000F900F90CF91DF910895DF93CF9300D055
:100C500000D00F92CDB7DEB789836A834B83898139
:100C6000282F30E03D832C838C819D81813091053C
:100C700009F447C02C813D81223031052CF48C8150
:100C80009D81009771F0CBC02C813D8122303105D0
:100C900009F467C08C819D818330910509F491C06E
:100CA000BEC08B818130A1F4AAE3B0E0EAE3F0E0BA
:100CB0008081482F8A81282F30E081E090E0022E49
:100CC00002C0880F991F0A94E2F7842B8C93A7C067
:100CD0008B81882309F0A3C0AAE3B0E0EAE3F0E047
:100CE0008081482F8A81282F30E081E090E0022E19
:100CF00002C0880F991F0A94E2F7809584238C9391
:100D00008EC08B818130A1F4A7E3B0E0E7E3F0E08F
:100D10008081482F8A81282F30E081E090E0022EE8
:100D200002C0880F991F0A94E2F7842B8C9377C036
:100D30008B81882309F073C0A7E3B0E0E7E3F0E01C
:100D40008081482F8A81282F30E081E090E0022EB8
:100D500002C0880F991F0A94E2F7809584238C9330
:100D60005EC08B818130A1F4A4E3B0E0E4E3F0E065
:100D70008081482F8A81282F30E081E090E0022E88
:100D800002C0880F991F0A94E2F7842B8C9347C006
:100D90008B81882309F043C0A4E3B0E0E4E3F0E0F2
:100DA0008081482F8A81282F30E081E090E0022E58
:100DB00002C0880F991F0A94E2F7809584238C93D0
:100DC0002EC08B818130A1F4A1E3B0E0E1E3F0E03B
:100DD0008081482F8A81282F30E081E090E0022E28
:100DE00002C0880F991F0A94E2F7842B8C9317C0D6
:100DF0008B818823A1F4A1E3B0E0E1E3F0E08081FE
:100E0000482F8A81282F30E081E090E0022E02C036
:100E1000880F991F0A94E2F7809584238C930F9092
:100E20000F900F900F900F90CF91DF910895DF9367
:100E3000CF9300D000D00F92CDB7DEB789836A83FD
:100E40004B838981282F30E03D832C838C819D81C9
:100E50008130910509F447C02C813D812230310554
:100E60002CF48C819D81009771F0CBC02C813D8149
:100E70002230310509F467C08C819D818330910552
:100E800009F491C0BEC08B818130A1F4ABE3B0E026
:100E9000EBE3F0E08081482F8A81282F30E081E069
:100EA00090E0022E02C0880F991F0A94E2F7842B6B
:100EB0008C93A7C08B81882309F0A3C0ABE3B0E07B
:100EC000EBE3F0E08081482F8A81282F30E081E039
:100ED00090E0022E02C0880F991F0A94E2F78095D5
:100EE00084238C938EC08B818130A1F4A8E3B0E081
:100EF000E8E3F0E08081482F8A81282F30E081E00C
:100F000090E0022E02C0880F991F0A94E2F7842B0A
:100F10008C9377C08B81882309F073C0A8E3B0E07D
:100F2000E8E3F0E08081482F8A81282F30E081E0DB
:100F300090E0022E02C0880F991F0A94E2F7809574
:100F400084238C935EC08B818130A1F4A5E3B0E053
:100F5000E5E3F0E08081482F8A81282F30E081E0AE
:100F600090E0022E02C0880F991F0A94E2F7842BAA
:100F70008C9347C08B81882309F043C0A5E3B0E080
:100F8000E5E3F0E08081482F8A81282F30E081E07E
:100F900090E0022E02C0880F991F0A94E2F7809514
:100FA00084238C932EC08B818130A1F4A2E3B0E026
:100FB000E2E3F0E08081482F8A81282F30E081E051
:100FC00090E0022E02C0880F991F0A94E2F7842B4A
:100FD0008C9317C08B818823A1F4A2E3B0E0E2E3F5
:100FE000F0E08081482F8A81282F30E081E090E076
:100FF000022E02C0880F991F0A94E2F7809584237D
:101000008C930F900F900F900F900F90CF91DF91D6
:101010000895DF93CF9300D000D0CDB7DEB78A8399
:101020008A81282F30E03C832B838B819C81813007
:101030009105D1F02B813C81223031052CF48B813C
:101040009C81009761F01EC02B813C8122303105CC
:1010500081F08B819C818330910581F013C0E9E39D
:10106000F0E0808189830EC0E6E3F0E0808189832F
:1010700009C0E3E3F0E08081898304C0E0E3F0E0AD
:101080008081898389810F900F900F900F90CF916D
:10109000DF910895DF93CF9300D000D00F92CDB7AA
:1010A000DEB78A836B838A81282F30E03D832C83CF
:1010B0004C815D814130510581F18C819D8182306F
:1010C000910534F42C813D812115310569F06FC003
:1010D0004C815D8142305105C9F18C819D81833005
:1010E000910509F44CC063C0A9E3B0E0E9E3F0E086
:1010F0008081282F30E08B81882F90E08170907064
:10110000A90102C0559547958A95E2F7CA018C93CB
:10111000E9E3F0E0808189834AC0A6E3B0E0E6E33A
:10112000F0E08081282F30E08B81882F90E0817063
:101130009070A90102C0559547958A95E2F7CA01BA
:101140008C93E6E3F0E08081898331C0A3E3B0E0D3
:10115000E3E3F0E08081282F30E08B81882F90E05E
:1011600081709070A90102C0559547958A95E2F764
:10117000CA018C93E3E3F0E08081898318C0A0E387
:10118000B0E0E0E3F0E08081282F30E08B81882F11
:1011900090E081709070A90102C0559547958A959D
:1011A000E2F7CA018C93E0E3F0E0808189838981D2
:1011B0000F900F900F900F900F90CF91DF910895A7
:1011C000DF93CF93CDB7DEB76D970FB6F894DEBF40
:1011D0000FBECDBF8D8F83E060E041E00E94170716
:1011E00083E061E040E00E94170782E06D8D0E947D
:1011F000E40583E062E041E00E94170780E090E0B0
:10120000A0E8BFE3898F9A8FAB8FBC8F698D7A8DF1
:101210008B8D9C8D20E030E04AEF54E40E941F0249
:10122000DC01CB018D8B9E8BAF8BB88F6D897E8956
:101230008F89988D20E030E040E85FE30E947903D9
:1012400088232CF481E090E09C8B8B8B3FC06D89D0
:101250007E898F89988D20E03FEF4FE757E40E9409
:10126000190318164CF5698D7A8D8B8D9C8D20E0B5
:1012700030E040E251E40E941F02DC01CB01BC01DE
:10128000CD010E944900DC01CB019C8B8B8B0FC0F0
:1012900088EC90E09A8B898B89899A890197F1F77C
:1012A0009A8B898B8B899C8901979C8B8B8B8B89E3
:1012B0009C89009769F714C06D897E898F89988D04
:1012C0000E944900DC01CB019C8B8B8B8B899C8914
:1012D000988B8F878F8598890197F1F7988B8F87E7
:1012E00083E062E040E00E94170780E090E0A0E821
:1012F000BFE38B879C87AD87BE876B857C858D859B
:101300009E8520E030E04AEF54E40E941F02DC0199
:10131000CB018F839887A987BA876F817885898564
:101320009A8520E030E040E85FE30E94790388235B
:101330002CF481E090E09E838D833FC06F8178859F
:1013400089859A8520E03FEF4FE757E40E94190313
:1013500018164CF56B857C858D859E8520E030E0E8
:1013600040E251E40E941F02DC01CB01BC01CD012F
:101370000E944900DC01CB019E838D830FC088EC65
:1013800090E09C838B838B819C810197F1F79C83F8
:101390008B838D819E8101979E838D838D819E811C
:1013A000009769F714C06F81788589859A850E94B6
:1013B0004900DC01CB019E838D838D819E819A83C0
:1013C000898389819A810197F1F79A8389836D9640
:1013D0000FB6F894DEBF0FBECDBFCF91DF91089559
:1013E000DF93CF93CDB7DEB76D970FB6F894DEBF1E
:1013F0000FBECDBF8D8F83E060E040E00E941707F5
:1014000083E061E040E00E94170782E06D8D0E945A
:10141000E40583E062E041E00E94170780E090E08D
:10142000A0E8BFE3898F9A8FAB8FBC8F698D7A8DCF
:101430008B8D9C8D20E030E04AEF54E40E941F0227
:10144000DC01CB018D8B9E8BAF8BB88F6D897E8934
:101450008F89988D20E030E040E85FE30E947903B7
:1014600088232CF481E090E09C8B8B8B3FC06D89AE
:101470007E898F89988D20E03FEF4FE757E40E94E7
:10148000190318164CF5698D7A8D8B8D9C8D20E093
:1014900030E040E251E40E941F02DC01CB01BC01BC
:1014A000CD010E944900DC01CB019C8B8B8B0FC0CE
:1014B00088EC90E09A8B898B89899A890197F1F75A
:1014C0009A8B898B8B899C8901979C8B8B8B8B89C1
:1014D0009C89009769F714C06D897E898F89988DE2
:1014E0000E944900DC01CB019C8B8B8B8B899C89F2
:1014F000988B8F878F8598890197F1F7988B8F87C5
:1015000083E062E040E00E94170780E090E0A0E8FE
:10151000BFE38B879C87AD87BE876B857C858D8578
:101520009E8520E030E04AEF54E40E941F02DC0177
:10153000CB018F839887A987BA876F817885898542
:101540009A8520E030E040E85FE30E947903882339
:101550002CF481E090E09E838D833FC06F8178857D
:1015600089859A8520E03FEF4FE757E40E941903F1
:1015700018164CF56B857C858D859E8520E030E0C6
:1015800040E251E40E941F02DC01CB01BC01CD010D
:101590000E944900DC01CB019E838D830FC088EC43
:1015A00090E09C838B838B819C810197F1F79C83D6
:1015B0008B838D819E8101979E838D838D819E81FA
:1015C000009769F714C06F81788589859A850E9494
:1015D0004900DC01CB019E838D838D819E819A839E
:1015E000898389819A810197F1F79A8389836D961E
:1015F0000FB6F894DEBF0FBECDBFCF91DF91089537
:10160000DF93CF93CDB7DEB7AA970FB6F894DEBFBE
:101610000FBECDBF82E06FEF0E94A30583E060E0C4
:1016200041E00E94250683E061E041E00E9425063A
:1016300083E062E041E00E94250680E090E0A8E4BB
:10164000B2E48FA398A7A9A7BAA76FA178A589A587
:101650009AA520E030E04AEF54E40E941F02DC012A
:10166000CB018BA39CA3ADA3BEA36BA17CA18DA139
:101670009EA120E030E040E85FE30E9479038823E8
:101680002CF481E090E09AA389A33FC06BA17CA1D8
:101690008DA19EA120E03FEF4FE757E40E94190380
:1016A00018164CF56FA178A589A59AA520E030E021
:1016B00040E251E40E941F02DC01CB01BC01CD01DC
:1016C0000E944900DC01CB019AA389A30FC088ECDA
:1016D00090E098A38F8F8F8D98A10197F1F798A331
:1016E0008F8F89A19AA101979AA389A389A19AA111
:1016F000009769F714C06BA17CA18DA19EA10E94E7
:101700004900DC01CB019AA389A389A19AA19E8FEC
:101710008D8F8D8D9E8D0197F1F79E8F8D8F88E334
:101720000E94F00980E090E0A0E8BFE3898F9A8FE3
:10173000AB8FBC8F698D7A8D8B8D9C8D20E030E0D6
:101740004AEF54E40E941F02DC01CB018D8B9E8B7B
:10175000AF8BB88F6D897E898F89988D20E030E0BE
:1017600040E85FE30E94790388232CF481E090E055
:101770009C8B8B8B3FC06D897E898F89988D20E0F3
:101780003FEF4FE757E40E94190318164CF5698D97
:101790007A8D8B8D9C8D20E030E040E251E40E94F8
:1017A0001F02DC01CB01BC01CD010E944900DC011C
:1017B000CB019C8B8B8B0FC088EC90E09A8B898B34
:1017C00089899A890197F1F79A8B898B8B899C89F2
:1017D00001979C8B8B8B8B899C89009769F714C030
:1017E0006D897E898F89988D0E944900DC01CB012B
:1017F0009C8B8B8B8B899C89988B8F878F85988905
:101800000197F1F7988B8F878CE00E94F00980E0B8
:1018100090E0A0E8BFE38B879C87AD87BE876B8590
:101820007C858D859E8520E030E04AEF54E40E945F
:101830001F02DC01CB018F839887A987BA876F814C
:10184000788589859A8520E030E040E85FE30E9452
:10185000790388232CF481E090E09E838D833FC040
:101860006F81788589859A8520E03FEF4FE757E4BF
:101870000E94190318164CF56B857C858D859E8515
:1018800020E030E040E251E40E941F02DC01CB0185
:10189000BC01CD010E944900DC01CB019E838D83F8
:1018A0000FC088EC90E09C838B838B819C81019797
:1018B000F1F79C838B838D819E8101979E838D831D
:1018C0008D819E81009769F714C06F817885898525
:1018D0009A850E944900DC01CB019E838D838D8116
:1018E0009E819A83898389819A810197F1F79A83EE
:1018F000898381E00E94F009AA960FB6F894DEBFB2
:101900000FBECDBFCF91DF910895DF93CF9300D06D
:101910000F92CDB7DEB79B838A8319820EC089816F
:10192000282F30E08A819B81FC01E20FF31F808128
:101930000E94E00889818F5F89838981282F30E0A8
:101940008A819B81FC01E20FF31F8081882339F794
:101950000F900F900F90CF91DF910895DF93CF9369
:1019600000D0CDB7DEB789836A838981882329F4C3
:101970008A8180580E94F00907C08981813021F452
:101980008A8180540E94F0090F900F90CF91DF91CF
:101990000895EF92FF920F931F93DF93CF93CDB7EC
:1019A000DEB728970FB6F894DEBF0FBECDBF6D83AC
:1019B0007E838F83988781E090E0A0E0B0E0898308
:1019C0009A83AB83BC838D819E81AF81B88500975C
:1019D000A105B105D1F580E30E94E00836C08981F8
:1019E0009A81AB81BC812AE030E040E050E0BC014C
:1019F000CD010E944F0F7B018C018D819E81AF81B3
:101A0000B8852AE030E040E050E0BC01CD010E9402
:101A10006E0FDC01CB018E0D9F1DA01FB11F8983AE
:101A20009A83AB83BC838D819E81AF81B8852AE088
:101A300030E040E050E0BC01CD010E946E0FDA01C1
:101A4000C9018D839E83AF83B8878D819E81AF81CD
:101A5000B8850097A105B10511F623C089819A8147
:101A6000AB81BC812AE030E040E050E0BC01CD0118
:101A70000E946E0FDC01CB01805D0E94E00889812D
:101A80009A81AB81BC812AE030E040E050E0BC01AB
:101A9000CD010E946E0FDA01C90189839A83AB835D
:101AA000BC8389819A81AB81BC8181309105A1057C
:101AB000B105A1F628960FB6F894DEBF0FBECDBFD4
:101AC000CF91DF911F910F91FF90EF9008951F929A
:101AD0000F920FB60F9211242F933F934F935F9362
:101AE0008F939F93AF93BF93EF93FF93DF93CF9326
:101AF000CDB7DEB780917A0090917B00A0917C00F9
:101B0000B0917D000097A105B105F9F4E6E4F0E09D
:101B100080819181CC01A0E0B0E08093830090931C
:101B20008400A0938500B0938600109276001092F6
:101B300077001092780010927900AEE4B0E0EEE405
:101B4000F0E080818F7B8C9365C080917A009091CA
:101B50007B00A0917C00B0917D0081309105A105B2
:101B6000B10531F5E6E4F0E0808191819C0140E02F
:101B700050E08091760090917700A0917800B0912C
:101B80007900DC0199278827820F931FA41FB51FB6
:101B900080937E0090937F00A0938000B09381009B
:101BA000AEE4B0E0EEE4F0E0808180648C9332C07B
:101BB00080917A0090917B00A0917C00B0917D0093
:101BC00082309105A105B10529F5E6E4F0E08081B8
:101BD00091819C0140E050E08091760090917700E7
:101BE000A0917800B0917900DC0199278827820FB5
:101BF000931FA41FB51F8093870090938800A09324
:101C00008900B0938A00A9E5B0E0E9E5F0E08081C1
:101C10008F7D8C9380917A0090917B00A0917C00C5
:101C2000B0917D000196A11DB11D80937A00909323
:101C30007B00A0937C00B0937D00CF91DF91FF915A
:101C4000EF91BF91AF919F918F915F914F913F9194
:101C50002F910F900FBE0F901F9018951F920F920B
:101C60000FB60F9211248F939F93AF93BF93DF937F
:101C7000CF93CDB7DEB78091760090917700A09199
:101C80007800B09179000196A11DB11D8093760076
:101C900090937700A0937800B0937900CF91DF9173
:101CA000BF91AF919F918F910F900FBE0F901F909A
:101CB0001895EF92FF920F931F93DF93CF93CDB7B9
:101CC000DEB728970FB6F894DEBF0FBECDBF0E94D7
:101CD000000B0E94130F0E94270F80917A009091B1
:101CE0007B00A0917C00B0917D0083309105A1051F
:101CF000B10599F720917E0030917F0040918000DE
:101D0000509181008091830090918400A091850082
:101D1000B091860079018A01E81AF90A0A0B1B0BB7
:101D2000D801C70124E630E040E050E0BC01CD011D
:101D30000E944F0F7B018C01209187003091880019
:101D40004091890050918A00809183009091840095
:101D5000A0918500B0918600281B390B4A0B5B0BC4
:101D6000C801B7010E946E0FDA01C9018D839E83FD
:101D7000AF83B88720918700309188004091890017
:101D800050918A008091830090918400A0918500F9
:101D9000B0918600281B390B4A0B5B0B80E092E167
:101DA000AAE7B0E0BC01CD010E946E0FDA01C901C3
:101DB00089839A83AB83BC8380E060E00E94AE0C91
:101DC00080E690E00E94850C8D819E81AF81B88570
:101DD000BC01CD010E94C90C81E060E00E94AE0C04
:101DE00087E690E00E94850C89819A81AB81BC8155
:101DF000BC01CD010E94C90C10927A0010927B00A8
:101E000010927C0010927D00A8E5B0E0E8E5F0E0DB
:101E1000808180628C93A9E5B0E0E9E5F0E0808103
:101E200080628C935ACFDF93CF93CDB7DEB7E3E5D3
:101E3000F0E08DE6808381E063E041E00E942506CA
:101E4000ECE5F0E082EC8083CF91DF910895DF93A1
:101E5000CF93CDB7DEB7AFE5B0E0EFE5F0E080813E
:101E600080688C93EFE4F0E01082EEE4F0E081E42F
:101E70008083A9E5B0E0E9E5F0E0808184608C939F
:101E8000A9E5B0E0E9E5F0E0808180628C9383E031
:101E900066E040E00E942506CF91DF910895629FA1
:101EA000D001739FF001829FE00DF11D649FE00D52
:101EB000F11D929FF00D839FF00D749FF00D659FB3
:101EC000F00D9927729FB00DE11DF91F639FB00DB2
:101ED000E11DF91FBD01CF0111240895A1E21A2EC1
:101EE000AA1BBB1BFD010DC0AA1FBB1FEE1FFF1FBE
:101EF000A217B307E407F50720F0A21BB30BE40B0E
:101F0000F50B661F771F881F991F1A9469F7609554
:101F10007095809590959B01AC01BD01CF0108950E
:101F20002F923F924F925F926F927F928F929F92E9
:101F3000AF92BF92CF92DF92EF92FF920F931F93D7
:101F4000CF93DF93CDB7DEB7CA1BDB0B0FB6F89488
:101F5000DEBF0FBECDBF09942A88398848885F84C8
:101F60006E847D848C849B84AA84B984C884DF8039
:101F7000EE80FD800C811B81AA81B981CE0FD11D1D
:101F80000FB6F894DEBF0FBECDBFED010895F894F3
:021F9000FFCF81
:101F9200447574793A2000467265713A2000000057
:061FA20000000000000039
:00000001FF
